:040000009BEF05F07D
:1000080000C018F001C017F002C016F00DC015F0BE
:10001800FBD918C000F017C001F016C002F015C0D7
:040028000DF01100C6
:10002C00C7B0FED79E96C69EDFC0C9FFC6BEFBD723
:08003C009EA6FED7C950120078
:10004400F0B802D01F9601D01F86F0988A9612004D
:100054000001DE6BC7B0FED7DF6BE6DFC9CFDEF091
:06006400DEC000F01200F6
:0E006A008A861FB602D0F09801D0F0881200EE
:10007800E5DFDBC000F0DCC001F001320032019E98
:1000880001320032019E01320032019E7F0E0016BD
:10009800000E0116800E00100001DF6FC3DF050E91
:1000A800026EDBC000F0DCC001F0025005E0003653
:1000B80000900136FF0FFAD7E00E0014DF6FB2DFB1
:0E00C800C5DF00C0DDF0CDDFDDC000F01200AE
:1000D6000B6A0A6A096A00500402F4CF09F0F3CFEA
:1000E60008F001500502F4CF0BF0F3CF0AF00050F0
:1000F6000502F3500926F4500A22E86A0B22015041
:100106000402F3500926F4500A22E86A0B2208C0BA
:1001160000F009C001F00AC002F00BC003F01200A3
:100126008EDFDBC0DFF07FDFDCC0DFF07CDF9ADF55
:020136001200B5
:0C013800240E0D6E0D2EFED700001200EC
:10014400030E0C6E970E0D6E0D2EFED70C2EFCD7E3
:0601540000000000120093
:0C015A00010E0001DB6FDC6BE1DF120026
:0A0166009484CA94F00EBD16120036
:10017000C26A070EC012C08EE2C000F000360090C6
:10018000003600900050C212C280D6DFC282C2A2E6
:1001900001D0FDD7C4CF01F0006AC3500012000E99
:0601A0000112C2901200E2
:1001A6000001D76B730EDB6F040EDC6FB9DF000E38
:1001B6000001DB6F030EDC6F5CDF00C0D8F0010EC0
:1001C6000001DB6F030EDC6F54DF070E0014000125
:1001D600D96F020EDB6F030EDC6F4BDF00C0DAF067
:1001E6000050C80A04E10F0E0001DA6F09D00001C1
:1001F600DA51CC0A03E1150EDA6F02D0D76B120082
:10020600020ED85D006E00C0D8F0DA51005CD76FE0
:10021600D951010AD8B4D78FD951030AD8B4D79F78
:100226006C0EE16E000EE26EDA2BDA51D85D0EE34B
:10023600000EDB6F030EDC6FDA51DB27D8B0DC2B48
:1002460018DF00C0E6FF0001DA2BEFD7E66A730E6F
:0C025600DB6FDC6B65DFD7C000F012002E
:10026200CB50010F006E016A000E0122D7C004F0CC
:10027200000E056E2FDF060E026E00C004F001C0F4
:1002820005F0025005E005320432059EFF0FFAD751
:10029200040E016E04C000F0015004E0003600902C
:1002A200FF0FFBD7300E0014036E04C000F005C030
:1002B20001F001320032019E01320032019E00C083
:0C02C200BEFF0F0EBD160350BD1212004F
:0A02CE009494CA840C0EBD121200B5
:1002D800B5DED7C0DFF0A6DEB9DE00C0D8F0C1DEDB
:0602E800D8C000F0120076
:1002EE00FF0E0001C76FFF0EC86FFF0EC96FFF0E26
:1002FE00CA6FFF0EC36FFF0EC46FFF0EC56FFF0EEA
:10030E00C66F949ED751040A02E1938201D0939254
:10031E009380C66AD751C612D951C612D851C71288
:10032E00D95305E0DA51000AD8B4C78C03D0DA539A
:08033E00D8A4C78CC68A120086
:0C034600100E0D6E0D2EFED700001200F0
:0C035200730E0001DB6FDC6BE5DE1200B7
:10035E0072DED7C000F0D8C001F001320032019E2B
:10036E0001320032019E01320032019E7F0E0014D6
:10037E000001DF6FDF8F53DE050E026ED7C000F077
:10038E00D8C001F0025005E0003600900136FF0F94
:10039E00FAD7E00E0014DF6FDF8941DED9C0DFF03F
:0603AE003EDE5CDE1200E1
:1003B4000D0E0C6EFB0E0D6E0D2EFED70C2EFCD703
:0603C40000000000120021
:1003CA000900F5CFE6FF0006FBE10106F9E112009C
:1003DA000001D76BD86BD96B010EDA6F83DF939864
:1003EA00939A9384939681948A988A8A8A86D6CF96
:0E03FA00C2F0666B676B196A1A6A1B6A120002
:08040800BE6ABD98BD9A120006
:100410009EA041D09E9068C0CEFF69C0CFFF000172
:10042000E26BA6DE00C0E0F001C0E1F0E1C020F028
:10043000E0C021F0010E0001E26F9ADE00C0E0F0A2
:1004400001C0E1F0E1C022F0E0C023F0020E0001A3
:10045000E26F8EDE00C0E0F001C0E1F0E1C024F008
:10046000E0C025F0030E0001E26F82DE00C0E0F084
:1004700001C0E1F0E1C026F0E0C027F0040E000169
:10048000E26F76DE00C0E0F001C0E1F0E1C028F0EC
:08049000E0C029F01F841200F6
:10049800620E0001D76F1CDF00C0CCF00001CCA7B2
:1004A80003D0FF0ECC6F01D0CC6BCCC000F0120093
:1004B80076DE00C0CBF0800E0014016E0150800A79
:1004C800D8A455D100016C51010A1AE16D51050AF1
:1004D80002E194802C806D51010A02E194822C8201
:1004E8006D51020A02E1948C2C846D51030A02E1D9
:1004F800938C2C866D51040A02E1938E2C8832D19C
:100508006C51020A1AE16D51050A02E194902C908F
:100518006D51010A02E194922C926D51020A02E196
:10052800949C2C946D51030A02E1939C2C966D5176
:10053800040A02E1939E2C9815D16C51030A16E126
:100548007551100A03E10BDE30940FD07551200A63
:1005580003E1B9DE308409D07551300A06E174C070
:10056800D7F07BDE74C02DF000D0FCD000016C51B8
:10057800040A27E16E51010A05E171C0D7FF72C074
:10058800D6FF1ED06E51020A03E1D66AD76A18D088
:100598006E51030A03E1D58E308212D06E51040ADF
:1005A80003E1D59E30920CD06E51050A03E1D5883F
:1005B800308606D06E51060A03E1D598309600D0F1
:1005C800D1D06C51050A15E16F51050AD8B48B706A
:1005D8006F51010AD8B48B726F51020AD8B48B7C60
:1005E8006F51030AD8B48A7C6F51040AD8B48A7E42
:1005F800B9D06C51060AD8A4B4D07051000A07E1EA
:10060800EC0E696F780E686F010E2F6EA8D07051CE
:10061800010A07E1D80E696FF00E686F020E2F6E9F
:100628009ED07051020A07E1C50E696F680E686FA7
:10063800030E2F6E94D07051030A07E1E00E696F24
:10064800B10E686F040E2F6E8AD07051040A07E14C
:100658009E0E696F580E686F050E2F6E80D0705110
:10066800050A07E18A0E696FD00E686F060E2F6EB5
:1006780076D07051060A07E1770E696F480E686FE9
:10068800070E2F6E6CD07051070A07E1630E696F71
:10069800C00E686F080E2F6E62D07051080A07E10D
:1006A800500E696F380E686F090E2F6E58D0705152
:1006B800090A07E13C0E696FB00E686F0A0E2F6ECB
:1006C8004ED070510A0A07E1290E696F280E686F2B
:1006D8000B0E2F6E44D070510B0A07E1150E696F8F
:1006E800360E686F0C0E2F6E3AD070510C0A07E167
:1006F800020E696F180E686F0D0E2F6E30D0705194
:100708000D0A05E1CF0ECD163098309A28D07051D9
:100718000E0A06E1CF0ECD16CD883088309A1FD04C
:1007280070510F0A06E1CF0ECD16CD8A3098308A67
:1007380016D07051100A07E1CF0ECD16300ECD122B
:100748003088308A0CD07051110A03E1CD90309076
:1007580006D07051120A03E1CD80308000D0F9DC58
:1007680001D0F7DCD7CF2AF0D6CF2BF001D0F1DCBF
:0207780012006D
:10077A000001D36BD46BD56B1C6AD66BD151030ABB
:10078A0003E1030ED56F02D0010ED56FD05303E0FB
:10079A000F0E1C6E02D0150E1C6ED58DD051FF0A9D
:1007AA00FF0ED8A4000E016E1AB002D0D89001D064
:1007BA00D880006AD8B0002A01500016D8A4D58B78
:1007CA00D4C0D7F0000ED86F1CC0D9F0C3DD000129
:1007DA00D42BD4C0D7F0000ED86F19501C24D96F6F
:1007EA00B9DD0001D42BD4C0D7F0000ED86FD5C024
:1007FA00D9F0B0DD0001D05309E0D42BD4C0D7F032
:10080A00000ED86FC80ED96FA5DD09D00001D42B10
:10081A00D4C0D7F0000ED86FCC0ED96F9BDD000183
:10082A00D42BD4C0D7F0000ED86FC2C0D9F092DD55
:10083A00CCC0E1FFCDC0E2FF0001D42BD4C0D7F079
:10084A00000ED86FE6CFD9F085DD0001D42BD4C0D5
:10085A00D7F0000ED86FE6CFD9F07CDD0001D05377
:10086A0012E0D42BD4C0D7F0000ED86FFF0ED96F88
:10087A0071DD0001D42BD4C0D7F0000ED86FFF0E63
:10088A00D96F68DD14D0CEC0E1FFCFC0E2FF00010E
:10089A00D66BD42BD4C0D7F0000ED86FE6CFD9F0E0
:1008AA0059DD0001D651070A02E0D62BF2D7000122
:1008BA00D66BD42BD4C0D7F0000ED86FBA0EE96E1F
:1008CA00000EEA6ED651E926D8B0EA2AEECFD9F060
:1008DA0041DD0001D651070A02E0D62BEAD7200EE5
:1008EA00E96E000EEA6E195000080BE20001D42BE3
:1008FA00D4C0D7F0000ED86FEECFD9F02BDD190691
:10090A00F2D71A821AB002D0029001D002800001F6
:10091A00D051000AFF0ED8A4000E016E006A02B080
:10092A00002A0150001603E0050ED66F02D0010E10
:10093A00D66F370EDB6FD6C0DCF093EC00F0000107
:0C094A00C22BFF0ED36FD3C000F01200D0
:10095600FF0E0001CE6F8A988A9AF2DC8A8AA2EC90
:1009660000F0070E666F550EDB6F070EDC6F93EC1B
:1009760000F00001CF6BD06B0001540ED76FA9DCDD
:1009860000C066F0070E0014016E0150000A01E077
:10099600F3D70DDD1B0E0001DB6F010EDC6F93EC50
:1009A60000F0030E0001DB6FCCC0E9FFCDC0EAFF0B
:1009B600EECFDCF093EC00F0050E0001DB6F010ECC
:1009C600CC25E96E000ECD21EA6EEECFDCF093EC7D
:1009D60000F0070E0001DB6FFF0EDC6F93EC00F0FA
:1009E600090E0001DB6FFF0EDC6F93EC00F0BA0E10
:1009F600E16E000EE26E0001666B66C000F0003626
:100A0600009000500B0FDB6FE6CFDCF093EC00F0AC
:100A160000016651070A02E0662BEFD7000ED76F7A
:100A2600020ED86F020ED96F97DC020E0001D76F47
:100A3600020ED86F800ED96F8FDC030E0001D76FC0
:100A4600020ED86FD96B88DC060E0001D76F020E36
:100A5600D86F900ED96F80DC070E0001D76F020E9B
:100A6600D86F800ED96F78DC080E0001D76F020EA2
:100A7600D86F100ED96F70DC200E0001D76F020EF2
:100A8600D86F010ED96F68DC750E0001DB6F780E2A
:100A9600DC6F93EC00F07D0E0001DB6F400EDC6F27
:100AA60093EC00F07F0E0001DB6FDC6B93EC00F043
:100AB600310E0001DB6F980EDC6F93EC00F05D0EDB
:100AC6000001DB6F950EDC6F93EC00F0A2EC00F0FA
:100AD6000001CF6BD06B666B0F0EDB6F020EDC6F07
:100AE6003CEC00F000C066F00001CF4BD02BD0519B
:100AF600FF0802E1CF51FE0802E2CE6B16D0A00E2F
:100B06006615016E0150A00A01E0E6D7650EDB6F9F
:100B1600E60EDC6F93EC00F0010E0001D76F020EBB
:100B2600D86F010ED96F18DC11DCCEC000F01200B0
:100B3600196A1A6A1B6A1C6A806A816A826A2F0E9F
:100B4600926E050E936E946A896A8A6A8B6AF26A55
:100B5600F16AF06A9F6AA26AD09E9D6AA06A9E6A3E
:100B6600A16A0A0EC16E070EB46E196A020E000162
:100B7600696F180E686F800ED56ECD6A180ECE6E30
:100B8600020ECF6E1F901D6A1E6ACF0ECD16020E84
:100B96002A6E180E2B6E2C6A7F0E2D6E2E6ACD0EC7
:100BA6002F6E310E306E1F941F92CA80CA92F90EB4
:100BB600CB6E27DC010ED76F31EC01F00BDC120E89
:100BC6006A6F340E6B6F4E0EBA6F4F0EBB6F440ECC
:100BD600BC6F450EBD6F200EBE6F540EBF6F570E15
:100BE600C06F4F0EC16F4E0EB26F4F0EB36F440EF5
:100BF600B46F450EB56F200EB66F4F0EB76F4E0E23
:100C0600B86F450EB96F6A0ECC6F000ECD6FA0DEC1
:100C1600005201E161D0D59E280ED56ED66AD76AFC
:100C2600F0929E909D80F28CF28ECD8032DC005246
:100C360003E0F29E3EDCF28E1FA416D0F29E110E49
:100C4600196E1A6A1B6A6A0E0001CC6F000ECD6F10
:100C5600B20ECE6F000ECF6FD06B010ED16FD26B7E
:100C660089DD196A1F94F28ECDB01CD01D4A1E2A4A
:100C76001E50030A02E1E80E1D1814E100011D6A68
:100C86001E6A110E196E1A6A1B6A6A0ECC6F000E66
:100C9600CD6FB20ECE6F000ECF6FD06B010ED16F3F
:100CA600D26B68DD82B002D02E9001D02E8082B247
:100CB60002D02E9201D02E8282BC02D02E9401D078
:100CC6002E8481BC02D02E9601D02E8681BE02D003
:100CD6002E9801D02E88AAD78B708B728B7C8A7C3B
:100CE6008A7E0D0E0B6EAF0E0C6EB60E0D6E0D2EB1
:100CF600FED70C2EFCD70B2EFAD70000EDD7FFD768
:020000040030CA
:0E000000000C1F1EFF8381FF0FC00FE00F409A
:00000001FF
