:040000008AEF05F08E
:020008001100E5
:10000A00C7B0FED79E96C69E12C1C9FFC6BEFBD711
:08001A009EA6FED7C95012009A
:10002200000E01010E1902E1000E0D1902E1016A32
:1000320009D00DC1E9FF0EC1EAFFEECF00F0016A5F
:0A00420000BE012A01C000F0120008
:10004C0001010D6BC7B0FED7126BD9DFC9CF0DF113
:06005C000DC100F01200CE
:10006200F0B802D02A9001D02A80F0988A96120025
:0E0072008A862AB002D0F09801D0F0881200E1
:1000800001010E51000A12E00DC100F0000E016ED8
:10009000003600900136AD0E0024E96E000E0120FE
:1000A000EA6EEECF04F0EECF05F011D00DC100F0F6
:1000B000000E016E003600900136A40E0024E96E99
:1000C000000E0120EA6EEECF04F0EECF05F0020E36
:1000D0000424E16E000E0520E26E0FC1E6FF10C1A0
:1000E000E6FF010E0424E16E000E0520E26E11C150
:1000F000E6FF04C0E9FF05C0EAFFEECF00F004C050
:10010000E1FF05C0E2FF400E0014E66E04C0E9FF07
:1001100005C0EAFFEECF00F004C0E1FF05C0E2FF3A
:10012000880E0010E66E0E51000A1BE00DC100F0B3
:10013000000E016E003600900136AD0E0024026EF6
:10014000000E0120036E02C0E9FF03C0EAFF040EA7
:10015000EE18006E02C0E1FF03C0E2FF00C0E6FF40
:100160001AD00DC100F0000E016E0036009001366D
:10017000A40E0024026E000E0120036E02C0E9FFEF
:1001800003C0EAFF040EEE18006E02C0E1FF03C0D8
:10019000E2FF00C0E6FF04C000F005C001F012005D
:1001A00008C102F009C103F00BC100F00CC101F05D
:1001B000010E01010B5F000E0C5B0050011009E005
:1001C00002C0E1FF03C0E2FF0AC1E6FF024A032AC0
:0401D000EBD7120057
:0A01D400D08EA28AA08AF28E1200DB
:1001DE0041DF08C100F009C101F001320032019E79
:1001EE0001320032019E01320032019E7F0E001656
:1001FE00000E0116800E00100101126FFFDE050EBB
:10020E00026E08C100F009C101F0025005E000368F
:10021E0000900136FF0FFAD7E00E0014126FEEDEDB
:0E022E000EDF00C00AF11EDF0AC100F0120050
:0E023C00160E6F6E9F0E6B6E7B0E696E1200BB
:10024A000BDF08C112F1DCDE09C112F1D9DE0CDFC5
:02025A00120090
:10025C00200E0001A85D03E36DB201D002D0006A4C
:10026C0025D09CC00DF19DC00EF1D5DE00521DE1D4
:10027C00010E00019C25E96E000E9D21EA6EEECF69
:10028C0000F000C00CF10BC10DF101010E6B08C1A7
:10029C000FF109C110F10AC111F1ECDE00C09CF0A4
:0E02AC0001C09DF00CC100F001D0006A1200EC
:1002BA00280E156E0C0E166E000E176E870E186E2F
:1002CA000C0E196E000E1A6E750E1B6E0C0E1C6E3D
:1002DA00000E1D6E510E1E6E0C0E1F6E000E206E4D
:0202EA00120000
:1002EC009AC008F19BC009F1400E01010A6F010E82
:0602FC000B6FAEDF1200E3
:0A0302006D6A696A0001A86B120021
:10030C000101046B730E086F040E096F98DF000E69
:10031C000101086F030E096F5CDF00C005F1010ECF
:10032C000101086F030E096F54DF070E0014010161
:10033C00066F020E086F030E096F4BDF00C007F14A
:10034C000050C80A04E10F0E0101076F09D001012A
:10035C000751CC0A03E1150E076F02D0046B120093
:10036C00020E055D006E00C005F10751005C046FC4
:10037C000651010AD8B4048F0651030AD8B4049F5D
:10038C00B30EE16E000EE26E072B0751055D0EE316
:10039C00000E086F030E096F07510827D8B0092B00
:1003AC0018DF00C0E6FF0101072BEFD7E66A730EDA
:0C03BC00086F096B44DF04C100F0120060
:1003C8002B0ED96E000EDA6E00017951D926D8B0FD
:0A03D800DA2A04C1DFFF792B1200BE
:0C03E200010E0101086F096B2FDF1200F3
:0C03EE00730E0101086F096B29DF12007B
:0C03FA00100E0D6E0D2EFED7000012003C
:10040600030E0C6E970E0D6E0D2EFED70C2EFCD71E
:06041600000000001200CE
:10041C000001A851000A0AE16D6A696A09DFD4DE9D
:0E042C006DB602D06D86FCD7010EA86F1200CF
:10043A003FDF00019C6B9D6B8B6B8C6B6A6A686AF1
:10044A00F8DE6D8C6E6A710E0101086F0F0E096F6E
:10045A000A6B010E0B6F000E0C6F9DDE6D9C046B18
:10046A00080E045D16E204C100F0000E016E0036AB
:10047A0000900136003600900136000E0024E16E2D
:10048A00040E0120E26EE66AE66AE66AE66A042B70
:10049A00E7D7160E706E68A603D0F70E6816FBD75C
:1004AA000001906B836B846B856B6D98080EAD6F42
:0A04BA00040EAE6F8A6BA86B1200EF
:1004C400CEDD04C112F19FDDBFDD00C005F1CFDD3B
:0604D40005C100F012005A
:1004DA00FF0E00019F6FFF0EA06FFF0EA16FFF0EB0
:1004EA00A26FFF0EA96FFF0EAA6FFF0EAB6FFF0E72
:1004FA00AC6F949E01010451040A02E1938201D077
:10050A0093929380C66A0451C6120651C6120551C7
:10051A00C712065305E00751000AD8B4C78C03D0A6
:0A052A000753D8A4C78CC68A12003C
:10053400200E0001A85D03E36DB201D002D0006A71
:1005440036D08BC00DF18CC00EF169DD00522EE166
:1005540007C10DF1010E0E6F04C10FF105C110F1B9
:1005640006C111F18BDD00C08BF001C08CF00001DD
:10057400956B966B976B986B8BC00DF18CC00EF1DD
:100584004EDD005209E00001955196119711981122
:1005940002E0006A0CD0F0D70001010E8B25E96E51
:1005A400000E8C21EA6EEECF00F001D0006A12003A
:1005B40056DD04C100F005C101F001320032019E94
:1005C40001320032019E01320032019E7F0E00147E
:1005D4000101126F128F17DD050E026E04C100F0C7
:1005E40005C101F0025005E0003600900136FF0F0E
:1005F400FAD7E00E0014126F128905DD06C112F15C
:0606040002DD35DD1200ED
:10060A000D0E0C6EFB0E0D6E0D2EFED70C2EFCD7AA
:06061A00000000001200C8
:0406200070DE120076
:10062400F9C004F1FAC005F1FBC006F1010E0101A5
:06063400076F7EDF1200DB
:10063A00010E0001996FF9C09AF0FAC09BF0FBC055
:10064A0093F0FCC094F0F4DE010E016E0150010A31
:06065A0001E1DFDE1200E9
:1006600045DE00C0B2F00050090819E20501005152
:10067000000A01E114D00001796BF96B0A0EF95DF3
:100680000DE2000EE96E050EEA6EF951E926D8B0CA
:10069000EA2AEECF04F198DEF92BF0D77A81120026
:1006A0000101006B016B026B00017B6B0101036BAD
:1006B0000001FE51030A04E1030E0101026F03D0A1
:1006C0000101010E026F0001FD5303E00F0E7B6F6D
:1006D00002D0150E7B6F0101028D0001FD51FF0A52
:1006E000FF0ED8A4000E016E7FB102D0D89001D0C9
:1006F000D880006AD8B0002A0150001602E001013B
:10070000028B010101C104F1000E056F7BC006F1EF
:1007100051DF0101012B01C104F1000E056F000141
:1007200079517B250101066F45DF0101012B01C1D4
:1007300004F1000E056F02C106F13CDF0001FD531C
:100740000AE00101012B01C104F1000E056FC80E82
:10075000066F30DF09D00101012B01C104F1000E49
:10076000056FCC0E066F26DF0101012B01C104F1DC
:10077000000E056F29C006F11DDFF9C0E1FFFAC0C8
:10078000E2FF0101012B01C104F1000E056FE6CF6C
:1007900006F110DF0101012B01C104F1000E056F0C
:1007A000E6CF06F107DF0001FD5313E00101012B45
:1007B00001C104F1000E056FFF0E066FFBDE0101A3
:1007C000012B01C104F1000E056FFF0E066FF2DE72
:1007D00014D0FBC0E1FFFCC0E2FF0101036B012B61
:1007E00001C104F1000E056FE6CF06F1E3DE010161
:1007F0000351070A02E0032BF2D70101036B012B1F
:1008000001C104F1000E056F710EE96E000EEA6E73
:100810000351E926D8B0EA2AEECF06F1CBDE01017A
:100820000351070A02E0032BEAD72B0EE96E000EF4
:10083000EA6E0001795100080CE20101012B01C1AF
:1008400004F1000E056FEECF06F1B4DE000179076A
:10085000F0D77F837FB102D0029001D00280FD519A
:10086000000AFF0ED8A4000E016E006A02B0002A32
:100870000150001604E0050E0101036F03D00101D1
:10088000010E036F370E086F03C109F1DEDC292A60
:0C089000FF0E0101006F00C100F012001B
:10089C00FF0E0001FB6F8A988A9AA9DD8A8AADDD6A
:1008AC00070EA36F550E0101086F070E096FC7DC09
:1008BC000001FC6BFD6B540E0101046FFDDD00C0EB
:1008CC00A3F0070E0014016E0150000A01E0F3D7EB
:1008DC0096DE1B0E0101086F010E096FB0DC030ED2
:1008EC000101086FF9C0E9FFFAC0EAFFEECF09F188
:1008FC00A6DC050E0101086F010E0001F925E96E59
:10090C00000EFA21EA6EEECF09F199DC070E010117
:10091C00086FFF0E096F93DC090E0101086FFF0EC3
:10092C00096F8DDC710EE16E000EE26E0001A36B9F
:10093C00A3C000F00036009000500B0F0101086FAF
:10094C00E6CF09F17CDC0001A351070A02E0A32BDE
:10095C00EFD7000E0101046F020E056F020E066F39
:10096C0023DE020E0101046F020E056F800E066F6E
:10097C001BDE030E0101046F020E056F066B14DE05
:10098C00060E0101046F020E056F900E066F0CDE51
:10099C00070E0101046F020E056F800E066F04DE58
:1009AC00080E0101046F020E056F100E066FFCDDC0
:1009BC00200E0101046F020E056F010E066FF4DDAF
:1009CC00750E0101086F780E096F39DC7D0E01017F
:1009DC00086F400E096F33DC7F0E0101086F096B45
:1009EC002EDC310E0101086F980E096F28DC5D0EAC
:1009FC000101086F950E096F22DCFFDC0001FC6B16
:100A0C00FD6BA36B0F0E0101086F020E096FEFEC6B
:100A1C0000F000C0A3F00001FC4BFD2BFD51FF08C2
:100A2C0002E1FC51FE0802E2FB6B17D0A00EA315ED
:100A3C00016E0150A00A01E0E5D7650E0101086FB7
:100A4C00E60E096F25EC01F0010E0101046F020E98
:100A5C00056F010E066FA8DDC4DCFBC000F01200B0
:100A6C000101046B056B066B010E076F30DD93986B
:100A7C00939A9384939681948A988A8A8A86D6CFFD
:100A8C0029F00001A36B9E6B796B7F6B806B12005E
:100A9C00620E0101046F10DD00C0F9F00001F9A72E
:100AAC0003D0FF0EF96F01D0F96BF9C000F0120002
:100ABC0027DC00C0B2F0005203E0010E016E01D041
:100ACC00016A0150800A1EE17F0E0001B217B16B62
:100ADC000A0EB25D15E2400EE16E050EE26EB151EA
:100AEC00E126D8B0E22AB30EE96E000EEA6EB151DF
:100AFC00E926D8B0EA2AEECFE6FF7A83B22BE8D704
:080B0C006ADC01D068DC120074
:100B1400806A816A826A3F0E926E040E936E900E12
:100B2400946E896A8A6A8B6A800ED56EF26AF16A5B
:100B3400F06A9F6AA26AD09E9D6AA06A9E6AA16AB0
:100B44000F0EC16E0001796B6F987A6B7E6BB16B7F
:100B5400B26B7F6B806B7B6BF098000EF96F050EA8
:100B6400FA6F400EFB6F050EFC6F65DD120E7C6F95
:100B7400340E7D6F4E0E716F4F0E726F440E736F95
:100B8400450E746F200E756F4F0E766F4E0E776F95
:100B9400450E786F4E0E216E4F0E226E440E236E5C
:100BA400450E246E200E256E540E266E570E276EAB
:100BB4004F0E286E59DF7C0EF96F000EFA6F6CDE53
:100BC400005201E12DD0F092F098F28CF28E64DFA5
:100BD400005201E071DF00017AA309D0400EF96FE1
:100BE400050EFA6F110EFB6F1BDD00017A9336DDE3
:100BF40000017AA114D0F29E7A917F6B806B7C0EF7
:100C0400F96F000EFA6F210EFB6F000EFC6FFD6B87
:100C1400010EFE6FFF6B42DD0001796BF28ED7D7B8
:040C2400FDDCFFD71D
:100C280009022900010100803209040000020300C2
:100C3800000009210101000122210007058103406C
:090C480000010705010340000151
:100C51002403520044004100510020002D002000D7
:100C61004D0052004600320034004A00340030008A
:040C71004D004100F1
:100C750012035400540065006C00650063006F00AA
:020C85006D0000
:040C87000403090455
:020000040030CA
:0E000000000C1F1EFF8381FF0FC00FE00F409A
:00000001FF
